:100000000C9453000C94BD040C94BD040C94BD04DA
:100010000C947F040C94BD040C94BD040C94BD049A
:100020000C94BD040C94BD040C94BD040C94BD044C
:100030000C94BD040C94BD040C94BD040C94BD043C
:100040000C94BD040C94BD040C94BD040C94BD042C
:100050000C94BD040C94BD040C94FA030C94BD04E0
:100060000C94BD040C94BD040C94BD040C94BD040C
:100070000C94BD040C94BD040C94BD040C94BD04FC
:100080000C94BD040C94BD040C94BD040C94BD04EC
:100090000C94BD040C94BD040C94BD040C94BD04DC
:1000A00028002807800011241FBECFEFCDBFDFE35B
:1000B000DEBFE0EAF0E040E017C0B591A5913591D0
:1000C0002591059107FD0CC095918591EF01F92FC0
:1000D000E82F05900D92A217B307D9F7FE0104C0CF
:1000E0001D92A217B307E1F7E53AF40731F70E9432
:0A00F0005E020C947B00F894FFCF31
:1000FA00ABE0B0E0E3E8F0E00C9416046C017B019D
:10010A008A01FC0116821782838181FFCCC1CE014C
:10011A0001963C01F6019381F70193FD859193FFC6
:10012A0081917F01882309F4BAC1853239F493FD9C
:10013A00859193FF81917F01853229F4B60190E080
:10014A000E945B03E7CF912C212C312CFFE1F315A0
:10015A00D8F08B3279F038F4803279F08332A1F416
:10016A00232D20611DC08D3261F0803369F4232D67
:10017A00216016C0832D8260382EE32DE4603E2E66
:10018A002AC0F32DF8601DC037FC2DC020ED280FC2
:10019A002A3040F08E32B9F436FC81C1232D206416
:1001AA00322E19C036FE06C08AE0989E200D112410
:1001BA00922E11C0EAE02E9E200D1124222EF32D3C
:1001CA00F0623F2E08C08C3621F4832D8068382EC9
:1001DA0002C0883641F4F70193FD859193FF81911E
:1001EA007F018111B3CF982F9F7D9554933028F4C6
:1001FA000C5F1F4F9FE399830DC0833631F083371D
:10020A0071F0833509F059C021C0F80180818983D2
:10021A000E5F1F4F88248394912C530113C0280129
:10022A00F2E04F0E511CF801A080B18036FE03C0E7
:10023A00692D70E002C06FEF7FEFC5010E94AA042A
:10024A004C018201F32DFF773F2E16C0280122E0D0
:10025A00420E511CF801A080B18036FE03C0692D00
:10026A0070E002C06FEF7FEFC5010E949F044C014E
:10027A00F32DF0683F2E820133FC1BC0822D90E0E3
:10028A0088169906B0F4B60180E290E00E945B03FA
:10029A002A94F4CFF50137FC859137FE81915F01ED
:1002AA00B60190E00E945B0321102A9421E0821A91
:1002BA0091088114910471F7E8C0843611F08936E7
:1002CA0041F5F80137FE07C060817181828193810F
:1002DA000C5F1F4F08C060817181072E000C880BCC
:1002EA00990B0E5F1F4FF32DFF763F2E97FF09C024
:1002FA0090958095709561957F4F8F4F9F4FF068CD
:10030A003F2E2AE030E0A3010E94FD02882E8618C3
:10031A0045C0853731F4232D2F7EB22E2AE030E0F6
:10032A0025C0932D997FB92E8F36C1F018F48835E0
:10033A0079F0B5C0803719F0883721F0B0C0E92FBD
:10034A00E061BE2EB4FE0DC0FB2DF460BF2E09C0C5
:10035A0034FE0AC0292F2660B22E06C028E030E0FB
:10036A0005C020E130E002C020E132E0F801B7FE2A
:10037A0007C060817181828193810C5F1F4F06C023
:10038A006081718180E090E00E5F1F4FA3010E949F
:10039A00FD02882E8618FB2DFF773F2E36FE0DC0F4
:1003AA00232D2E7FA22E891458F434FE0BC032FC62
:1003BA0009C0832D8E7EA82E05C0B82CA32C03C09D
:1003CA00B82C01C0B92CA4FE0FC0FE01E80DF11D26
:1003DA008081803321F49A2D997EA92E09C0A2FE2C
:1003EA0006C0B394B39404C08A2D867809F0B394F6
:1003FA00A3FC11C0A0FE06C0B21488F4280C922CEB
:10040A009B180EC0B21460F4B60180E290E00E941C
:10041A005B03B394F7CFB21418F42B1802C0982CCC
:10042A00212CA4FE10C0B60180E390E00E945B0379
:10043A00A2FE17C0A1FC03C088E790E002C088E5CD
:10044A0090E0B6010CC08A2D867859F0A1FE02C050
:10045A008BE201C080E2A7FC8DE2B60190E00E9427
:10046A005B03891438F4B60180E390E00E945B03D1
:10047A009A94F7CF8A94F301E80DF11D8081B601B1
:10048A0090E00E945B038110F5CF222009F442CE4E
:10049A00B60180E290E00E945B032A94F6CFF6014F
:1004AA008681978102C08FEF9FEF2B96E2E10C9431
:0204BA002F040D
:1004BC00CF93DF93CDB7DEB72597CDBFDEBF00E47A
:1004CC0011E080E7F801808B0E94DE03DD24D394D9
:1004DC00F801D28AD0928204E12C6894FF24F2F8BD
:1004EC0088E0F7018183E0E5F0E08081897F8083FB
:1004FC00F8940E9497037894F80180898160808B2E
:10050C000E946E048AE699E40E949004D092080638
:10051C00F701848188608483B12C0F2EFEE1AF2E0D
:10052C00F02D0F2EF5E7CF2EF9E4DF2EF02DCE01B6
:10053C0001967C0100E510E080910628882361F18A
:10054C002091022830910328A29EC001A39E900DF9
:10055C001124809300289093012880910028909179
:10056C0001289F938F93DF92CF92FF92EF920E947C
:10057C00BC0380EC0E945C04C7010E9490041092A2
:10058C00022810920328109206280F900F900F90BB
:10059C000F900F900F9022C0809104289091052805
:1005AC008E37910570F0B1100CC08091022890919B
:1005BC00032801968093022890930328BB24B394BC
:1005CC000DC080910428909105288E37910528F054
:1005DC0081E0B81280E0B82E01C0B12CF801808106
:0E05EC0081608083889580818E7F8083A5CF7B
:1005FA00FA01AA27283051F1203181F1E8946F934A
:10060A006E7F6E5F7F4F8F4F9F4FAF4FB1E03ED0EF
:10061A00B4E03CD0670F781F891F9A1FA11D680F8D
:10062A00791F8A1F911DA11D6A0F711D811D911DC0
:10063A00A11D20D009F468943F912AE0269F112435
:10064A003019305D3193DEF6CF010895462F477099
:10065A00405D4193B3E00FD0C9F7F6CF462F4F70F4
:10066A00405D4A3318F0495D31FD4052419302D052
:10067A00A9F7EACFB4E0A6959795879577956795F8
:10068A00BA95C9F700976105710508959B01AC01F8
:10069A000A2E06945795479537952795BA95C9F71F
:0C06AA00620F731F841F951FA01D089590
:1006B6000F931F93CF93DF93FB01238121FD03C08B
:1006C6008FEF9FEF2CC022FF16C0468157812481F1
:1006D60035814217530744F4A081B1819D012F5FF4
:1006E6003F4F208331838C93268137812F5F3F4F85
:1006F6002683378314C08B01EC01FB010084F1854E
:10070600E02D0995892BE1F6D80116968D919C91DD
:100716001797019616968D939C931797CE01DF91A6
:08072600CF911F910F9108957E
:10072E00E0E2F4E088E3818380E2858388E18683DA
:10073E00E0E6F4E08FEF8083148282E48A95F1F78D
:10074E0000C083E30E945C0488E30E945C048CE09A
:10075E000E945C0481E00E945C0480E80E945C04BC
:0A076E008FE68A95F1F70000089568
:10077800AEE0B0E0E2ECF3E00C9424040D891E89AD
:1007880086E08C8309831A838FEF9FE78D839E838E
:10079800AE01475E5F4F6F89788DCE0101960E944A
:1007A8007D00EF81F885E00FF11F10822E96E4E0BE
:0407B8000C943D045C
:1007BC00E0E8F4E08089887F808B80898460808B7E
:1007CC008089877F808BE0E0F6E083E0828381E0A4
:1007DC00808388E08683A0EAB0E08C9180648C935F
:0807EC00828581608287089577
:1007F4001F920F920FB60F9211248F939F93EF9332
:10080400FF93E0E0F6E08089918980930428909337
:10081400052881E08087FF91EF919F918F910F9040
:080824000FBE0F901F90189504
:10082C002F923F924F925F926F927F928F929F92F4
:10083C00AF92BF92CF92DF92EF92FF920F931F93E2
:10084C00CF93DF93CDB7DEB7CA1BDB0BCDBFDEBFBB
:02085C000994FD
:10085E002A88398848885F846E847D848C849B8442
:10086E00AA84B984C884DF80EE80FD800C811B8150
:10087E00AA81B981CE0FD11DCDBFDEBFED01089586
:10088E0080936404E0E2F4E080E1858388E0858370
:10089E0092E49A95F1F700C0868382E48A95F1F787
:0A08AE0000C086E00E945C0408957B
:1008B80080936404E0E2F4E080E1868388E0858345
:1008C80092E49A95F1F700C0868382E48A95F1F75D
:0408D80000C00895BF
:1008DC0081E00E945C0482E896E00197F1F700C089
:1008EC0080E80E945C0482E896E00197F1F700C072
:0208FC0008955D
:1008FE001F920F920FB60F9211248F9381E0809367
:10090E005301809306288F910F900FBE0F901F906A
:02091E0018952A
:10092000CF93DF93EC018881882331F021960E94D8
:0E093000470489918111FBCFDF91CF9108958B
:10093E00FC010590615070400110D8F7809590959C
:06094E008E0F9F1F0895AB
:10095400FC016150704001900110D8F7809590958A
:060964008E0F9F1F089595
:10096A0052504D20436F756E743A00252D34750030
:04097A000C940000D9
:00000001FF
